{
  "contractName": "wesCoinSale",
  "abi": [
    {
      "inputs": [
        {
          "internalType": "contract wesCoin",
          "name": "_tokenContract",
          "type": "address"
        }
      ],
      "payable": false,
      "stateMutability": "nonpayable",
      "type": "constructor"
    },
    {
      "constant": true,
      "inputs": [],
      "name": "tokenContract",
      "outputs": [
        {
          "internalType": "contract wesCoin",
          "name": "",
          "type": "address"
        }
      ],
      "payable": false,
      "stateMutability": "view",
      "type": "function"
    }
  ],
  "bytecode": "0x608060405234801561001057600080fd5b506040516101a43803806101a48339818101604052602081101561003357600080fd5b8101908080519060200190929190505050336000806101000a81548173ffffffffffffffffffffffffffffffffffffffff021916908373ffffffffffffffffffffffffffffffffffffffff16021790555080600160006101000a81548173ffffffffffffffffffffffffffffffffffffffff021916908373ffffffffffffffffffffffffffffffffffffffff1602179055505060d0806100d46000396000f3fe6080604052348015600f57600080fd5b506004361060285760003560e01c806355a373d614602d575b600080fd5b60336075565b604051808273ffffffffffffffffffffffffffffffffffffffff1673ffffffffffffffffffffffffffffffffffffffff16815260200191505060405180910390f35b600160009054906101000a900473ffffffffffffffffffffffffffffffffffffffff168156fea265627a7a7231582028e46ce3590dd34836370041c22cf636f147ae2550868347026644dfc783950c64736f6c63430005100032",
  "source": "pragma solidity >=0.4.21 <0.7.0;\n\nimport \"./wesCoin.sol\";\n\ncontract wesCoinSale {\n   address admin;\n   wesCoin public tokenContract;\n\n\n   constructor (wesCoin _tokenContract) public {\n      admin = msg.sender;\n      tokenContract = _tokenContract;\n\n   }\n}\n",
  "sourcePath": "/Users/daleross18/wesCoin/token_sale/contracts/wesCoinSale.sol",
  "compiler": {
    "name": "solc",
    "version": "0.5.16+commit.9c3226ce.Emscripten.clang"
  },
  "schemaVersion": "3.2.0",
  "updatedAt": "2020-06-25T17:13:31.287Z",
  "networkType": "ethereum",
  "devdoc": {
    "methods": {}
  },
  "userdoc": {
    "methods": {}
  }
}